:020000040800F2
:10000000D8070020E9610008990200089B02000857
:100010009F020008A3020008A702000800000000D9
:10002000000000000000000000000000AB0200081B
:10003000AD02000800000000AF020008B102000895
:1000400003620008036200080362000803620008FC
:1000500003620008036200080362000803620008EC
:1000600003620008036200080362000803620008DC
:1000700003620008036200080362000803620008CC
:1000800003620008036200080362000803620008BC
:1000900003620008036200080362000803620008AC
:1000A000036200080362000803620008036200089C
:1000B000B10600080362000803620008036200083A
:1000C000036200080362000803620008036200087C
:1000D000036200085F610008036200080362000811
:1000E000036200080362000803620008036200085C
:1000F000036200080362000803620008036200084C
:10010000036200080362000803620008036200083B
:10011000036200080362000803620008036200082B
:10012000036200080362000803620008036200081B
:1001300000F002F800F03FF80AA090E8000C8244BA
:100140008344AAF10107DA4501D100F034F8AFF297
:10015000090EBAE80F0013F0010F18BFFB1A43F0A5
:1001600001031847F0AF000010B00000103A24BFA0
:1001700078C878C1FAD8520724BF30C830C144BF0C
:1001800004680C607047000000230024002500264E
:10019000103A28BF78C1FBD8520728BF30C148BFEA
:1001A0000B607047782908F0AF82002070471FB5B8
:1001B0001FBD10B510BD08F05FFB1146FFF7F7FF3C
:1001C00000F008F808F07DFB03B4FFF7F2FF03BC72
:1001D00005F06AFF05F0FEFE4FF4A06006F024F87B
:1001E0004FF4E13005F06FFF00F016FA00F036FB37
:1001F00000F050F9472142F20F7000F02BFA00F0A6
:1002000025FC00201D4908801D49088040F2CF21AF
:100210004FF4FA6000F0CEFA18480188194807F048
:10022000BBFA17480188174807F0B4FA012000F01C
:1002300057FB804608F0EBFD06464FF06632124B46
:1002400008F034FE044608F047FB1049086000F04F
:100250005EFB0F4908600F48007809F0C1F90446B9
:1002600000F06AFE08E0642005F0F1FE00F080F97D
:1002700001F085FA00F0EBFEF5E700000200002037
:10028000000000200004004066664A3F080000208D
:10029000040000200E000020704700BFFEE700BFF2
:1002A000FEE700BFFEE700BFFEE7704770477047FC
:1002B000704700000CB50020019000906C48006869
:1002C00040F480306A49086000BF6948006800F463
:1002D000003000900198401C0190009818B90198D6
:1002E000B0F5A06FF1D16248006800F4003010B1A1
:1002F0000120009001E0002000900098012843D1E7
:100300005C48006840F010005A49086008460068E0
:1003100020F0030008600846006840F00200086012
:10032000534840685249486008464068486008465B
:10033000406840F4806048600846406820F47C10C3
:1003400048600846406840F4E81048600846006885
:1003500040F08070086000BF4548006800F0007001
:100360000028F9D04248406820F003004049486026
:100370000846406840F00200486000BF3C484068C2
:1003800000F00C000828F9D10CBD10B5FFF792FF62
:1003900010BD10B53648006840F0010034490860CF
:1003A00008464068344908403149486008460068BA
:1003B000324908402E4908600846006820F4802031
:1003C00008600846406820F4FE0048604FF41F00B3
:1003D0008860FFF7DAFF4FF000602949086010BD20
:1003E00010B5002100200022214B5B6803F00C01B6
:1003F00021B1042906D0082928D107E0214B224C3D
:10040000236027E01F4B204C236023E0184B5B68E0
:1004100003F47010164B5B6803F48032022303EB85
:10042000904022B9194B4343174C23600DE0104B09
:100430005B6803F4003323B1144B4343124C236035
:1004400003E0104B4343104C236003E00D4B0E4C74
:10045000236000BF00BF064B5B68C3F303130C4C63
:10046000E15C094B1B68CB40074C236010BD0000CA
:1004700000100240002002400000FFF8FFFFF6FEDF
:1004800008ED00E000127A001400002000093D0091
:100490001800002008B50121442006F04FFA102072
:1004A000ADF8000048208DF803006946514805F07A
:1004B00089FF4FF47870ADF8000069464E4805F0AA
:1004C00081FF08BD10B5044614B101204B490870E6
:1004D0004A480078002835D04948006878B1484833
:1004E0000830006858B146480C30006838B14448BC
:1004F0001030006818B14248001D006810BB0A2087
:1005000005F0A5FD00203D4908703D48006808B988
:10051000012010BD3A48001D006808B90220F8E724
:1005200037480830006808B90320F2E734480C3037
:10053000006808B90420ECE7314810300068A8B919
:100540000520E6E72E48006801280FD12C48083026
:10055000006801280AD12A480C300068012805D11A
:10056000274810300068012800D100BF0020D0E7E4
:1005700010B50120FFF7A6FF062837D2DFE800F00C
:1005800036030A11202F1F48007880F001001D4912
:1005900008702CE01C48007880F001001A490870AF
:1005A00025E01948007828B918480078401C1749F8
:1005B000087004E016480078401C1549087016E0E1
:1005C0001148007828B911480078401E0F4908707A
:1005D00004E00F480078401E0D49087007E00D4800
:1005E000007880F001000B49087000E000BF00BFF8
:1005F00010BD000000180140000C01402800002040
:10060000148121420C0000200D0000200E0000206B
:100610000F0000201000002008B50121482006F03E
:100620008DF910208DF8030003208DF8020024209E
:10063000ADF800006946054805F0C4FE20210348D6
:1006400005F06FFF00200249086008BD0018014056
:10065000880123427FB505460C460121084606F075
:100660007AF9ADF80850ADF804400020ADF80A0062
:10067000ADF8060001A94FF0804006F097FA01227C
:100680001146900706F009FE1C208DF8000000209E
:100690008DF8010003208DF8020001208DF8030081
:1006A000684605F0C6FD0121880706F0DBFD7FBD29
:1006B00010B50121880707F09EF8002879D00121A4
:1006C000880707F0A9F85E480078002871D000F08C
:1006D0001EF95C490860A1215A48006800F045FDF8
:1006E000594800785A2832DC5648006800F0E9F989
:1006F0005649088008460088B0F5AF6F1CDB4FF400
:10070000AF61534807F046F850480088A0F5AF6045
:1007100040F2DC51081A4F4908800846008840F230
:10072000DC51884202DB08464A4908804948018872
:10073000474807F031F83CE040F2DC51444807F00C
:100740002BF842480188424807F024F831E03D4840
:10075000006800F056FA3D49088008460088B0F568
:10076000AF6F1CDB4FF4AF61394807F013F837481F
:100770000088A0F5AF6040F2DC51081A35490880C6
:100780000846008840F2DC51884202DB08463149C5
:100790000880304801882E4806F0FEFF09E040F24C
:1007A000DC512B4806F0F8FF28480188284806F05D
:1007B000F1FF10BD30B589B005460C46012102207D
:1007C00006F0C9F80121092006F0B8F8C020ADF8FC
:1007D000200018208DF8230003208DF8220008A99E
:1007E0001D4805F0EFFDADF81850ADF8144000209D
:1007F000ADF81A00ADF8160005A9154806F0D6F9AF
:100800007020ADF804000120ADF806000220ADF81C
:100810000C0001A90E4806F048FA08210C4806F021
:100820005AFE01A90A4806F0FEF90821084806F018
:1008300049FE0121064806F015FD09B030BD000053
:1008400029000020040000200E00002000000020ED
:1008500000040040020000200008014000B587B0FD
:1008600001214FF4017006F069F84FF4004005F0E3
:10087000C9FF0220ADF8040000208DF8070001A98F
:10088000454805F09FFD454807F0CEF9002002904D
:100890008DF80C008DF80D004FF4602004900020BE
:1008A000059001208DF8180002A93C4807F0E3F9F3
:1008B00001213A4807F00BFA384807F02AFA00BF3E
:1008C000364807F02BFA0028FAD1344807F030FAFE
:1008D00000BF324807F031FA0028FAD107B000BD56
:1008E00010B504460023012221462C4807F05BFA8C
:1008F00001212A4807F02BFA00BF0221274807F000
:1009000097FB0028F9D0254807F0B4FA10BD2DE96F
:10091000F04F8BB04FF0000AD34607E00120FFF7FD
:10092000DFFF82440BF1010000F0FF0BBBF1050F6C
:10093000F4DB1B48006808F0D7FCCDE90401052072
:10094000BAFBF0F0009008F04BFE019008F0CCFCF0
:100950004FF06632134BCDE9020108F0A7FA80464A
:10096000DDE9042308F0D6FB00220F4BCDE9060198
:1009700008F098F8064600220C4B08F097FA044657
:1009800000220B4B07F0DAFFCDE9080107F0A4FFC6
:100990000BB0BDE8F08F00000008014000240140CA
:1009A0000800002066664A3F000004400080664060
:1009B000008046402DE9FE4F06460F4614461D4670
:1009C000DDF830802146304608F04FFF4146029066
:1009D000304608F04AFF39460190284608F050FF9B
:1009E0000090019908F044FE8346029908F016FD34
:1009F0008246394608F0A4FC81464846BDE8FE8F91
:100A00002DE9FE4F04460F4615461E46DDF83080A0
:100A10002946204608F029FF39460290304608F062
:100A20002FFF39460190404608F02AFF00900199B7
:100A300008F0F4FC8346029908F01AFE824621462B
:100A400008F07EFC81464846BDE8FE8F10B50020C8
:100A5000F9490880F9490880F9490870F94908708E
:100A60004120F94908706E20F8490870F348018860
:100A7000F74806F091FEF0480188F54806F08AFE36
:100A8000FFF745FFF34908600020F349086048601C
:100A900088600861C860F1484861F1488861F148A0
:100AA000C86100200862F0488862F048C8624FF0D0
:100AB0007E500863002048638863C8630864486404
:100AC00010BD2DE9FE4F824600200290E2480068EA
:100AD000E14900908A6A4FF07E53C86A0021FFF70F
:100AE00069FFDD49C863CDF800A08A6A4FF07E53E4
:100AF000C86A0021FFF75EFFD74908640A46116CF7
:100B0000D06B08F0BDFE8146D34AD16B106C08F063
:100B10007BFE0CD20021484608F076FD19D2CE4962
:100B2000086A494608F00CFCCB49086211E0CA4A41
:100B3000D16B106C08F068FD0BD20021484608F01C
:100B400063FE06D2C449086A494608F0F9FBC24967
:100B50000862C1488168484608F092FE0746BE48D0
:100B6000C169384608F084FD0546BB4A116A9069A0
:100B700008F07EFD0746B8494869494608F078FD07
:100B80008046394608F0DCFB0646294608F0D8FBCB
:100B90000446B148816B204608F072FEAE49886376
:100BA0004FF07E51204608F02FFE01D24FF07E54C8
:100BB0000021204608F028FD00D20024A648C0F8F5
:100BC00044908463014600948A6A4FF07E53C86A59
:100BD0000021FFF715FF8346584608F085FBA44A1D
:100BE000A44BCDE9000108F061F90746A24AA34BE6
:100BF00008F090FA054608F0ADF802900298BDE8BA
:100C0000FE8F2DE9FF5F06469D49304608F02DFE18
:100C1000064691480068904900908A6A4FF07E53DA
:100C2000C86A0021FFF7C6FE8B49C86300968A6A2E
:100C30004FF07E53C86A0021FFF7BCFE8649086466
:100C40000A46116CD06B08F01BFE0546824AD16B38
:100C5000106C08F0D9FD0CD20021284608F0D4FC15
:100C600019D27D49086A294608F06AFB7A49086268
:100C700011E0794AD16B106C08F0C6FC0BD2002150
:100C8000284608F0C1FD06D27349086A294608F0D3
:100C900057FB7149086270488168284608F0F0FDEA
:100CA00083466D48C169584608F0E2FC07466A4A27
:100CB000116A906908F0DCFC834667494869294657
:100CC00008F0D6FC5946039008F03AFB80463946B6
:100CD00008F036FB04466048816B204608F0D0FDE2
:100CE0005D4988634FF07E51204608F08DFD01D2AA
:100CF0004FF07E540021204608F086FC00D20024EC
:100D0000554845648463014600948A6A4FF07E53D7
:100D1000C86A0021FFF774FE82465146584808F021
:100D2000AFFD8246504608F0DFFA564A564BCDE9F1
:100D3000000108F0BBF84FF03332544BCDE902010B
:100D400008F0E8F9074608F005F8814651464C4896
:100D500008F096FD8246484604B0BDE8F09F2DE9B4
:100D6000F0470446002500264049204608F04CFD87
:100D700001D8012000E0002091285BDC3A492046A0
:100D800008F042FC57D84249204608F03DFC06D8FE
:100D9000314804602F4800682F4948600CE02D4816
:100DA0000168374808F06CFD2B49486034492046FB
:100DB00008F05BFD2849086001203649087024E0EE
:100DC00024480168204608F05BFD814608F08CFA53
:100DD0000746294A5242304B08F02CF810D21D48E1
:100DE0000168204608F04CFD814608F07DFA074670
:100DF000214A5242294B08F057F901D8681CC5B264
:100E0000701C86B20A2005F022F9052D02DCB6F529
:100E1000FA7FD5DD0120224908604FF4FA7005F011
:100E200016F900201F49C1F888011A490870FFF718
:100E30000DFE3FE03CE037E0000000200200002013
:100E40000C0000200D0000200E0000200F000020EC
:100E50000004004004000020500000209A99193F2F
:100E60000AD7233C6666E63F000011430000344287
:100E70000E2DB29DEF07304085EB51B81E055D4049
:100E8000000034431F85EB51B89E2E4033E35040A1
:100E90000000B44229000020E17A843FE17A84BF57
:100EA000880123420000234200207B49087001E0B2
:100EB000BDE8F08700BFFBE770B506460C4600258D
:100EC0007649304608F0A0FC01D8012000E000205F
:100ED00091282EDC2146714808F096FB01D80120AC
:100EE00000E00020912824DC11E0304608F058FB97
:100EF0006B4908703046FFF732FF204608F050FB80
:100F0000674908702046FFF72AFF681CC5B2032D09
:100F1000EBDD4FF47A71634806F03EFC0021614836
:100F200006F038FC4FF47A7005F091F8FFF78EFD6B
:100F300000E070BD00BFFCE72DE9F0470546002644
:100F400000245649284608F05FFC01D8012000E043
:100F50000020912877DC5449284608F055FB6ED8CC
:100F60005249284608F050FB06D8514805605148C0
:100F700000684F4948600CE04E4801684E4808F050
:100F80007FFC4B4948604C49284608F06EFC4849B4
:100F9000086001204049087022E046480168284660
:100FA00008F06EFC814608F09FF90746434A444B1F
:100FB00007F040FF0FD23F480168284608F060FC68
:100FC000814608F091F907463C4A3E4B08F06CF820
:100FD00001D8701CC6B2601C84B20A2005F037F834
:100FE000052E02DCB4F5617FD7DD012036490860AB
:100FF0004FF4FA7005F02BF800203449C1F888014D
:1010000041F2883404E0601E84B2012005F01FF82C
:10101000002CF8D10020204908700021214806F05A
:10102000BBFB4FF47A711F4806F0B4FB4FF47A70A3
:1010300005F00DF8FFF70AFD07E004E0FFE70020E8
:101040001549087001E0BDE8F08700BFFBE770B507
:101050001F48007801281ED100201D4908701D4836
:10106000007838B90E48007808F0BAFA0446FFF75D
:1010700063FF10E01748007801280CD1164800786B
:1010800008F0AEFA04460648007808F0A9FA0546CA
:101090002146FFF711FF70BD2900002000003442F7
:1010A0000E00002000040040000011430000B44284
:1010B0005000002004000020000034437B14AE47A1
:1010C000E17A843FE17A84BF880123420000234211
:1010D000100000200C0000200F00002000BFBC49C1
:1010E000098801F040010029F9D0B949091D08809B
:1010F000704770B588B004460D4613461C2B01DDC1
:1011000008B070BD0021D81C0DF8001088208DF8A3
:1011100000008DF801408DF80230002205E0A95C46
:10112000D01C0DF80010501CC2B29A42F7DB00220E
:101130000BE0D81C1DF800001DF802100844C1B2D5
:10114000D81C0DF80010501CC2B2D81C8242F0DB33
:10115000002205E01DF80200FFF7C0FF501CC2B2DC
:10116000181D8242F6DB00BFCAE733B582B00D46D8
:1011700002ACE0788DF80000A0788DF8010060786E
:101180008DF8020020788DF8030004226946284675
:10119000FFF7AFFF3FBD2DE9FE4304460D4617465E
:1011A0001E46DDE90A89200A8DF80000E0B28DF8BC
:1011B0000100280A8DF80200E8B28DF80300380A11
:1011C0008DF80400F8B28DF80500300A8DF806009D
:1011D000F0B28DF807004FEA18208DF8080008F0EB
:1011E000FF008DF809004FEA19208DF80A0009F078
:1011F000FF008DF80B000C226946A120FFF779FF54
:10120000BDE8FE8370B588B004460D4613461C2B1E
:1012100001DD08B070BD0021181D0DF800108820F8
:101220008DF800008DF801408DF80230AD208DF86A
:101230000300002205E0A95C101D0DF80010501CF1
:10124000C2B29A42F7DB00220BE0181D1DF8000025
:101250001DF802100844C1B2181D0DF80010501CF2
:10126000C2B2181D8242F0DB002205E01DF8020028
:10127000FFF734FF501CC2B2581D8242F6DB00BF9C
:10128000C7E72DE9F04385B004460D4617461E46D4
:10129000DDE90C89200A8DF80000E0B28DF801002C
:1012A000280A8DF80200E8B28DF80300380A8DF89C
:1012B0000400F8B28DF80500300A8DF80600F0B28F
:1012C0008DF807004FEA18208DF8080008F0FF009D
:1012D0008DF809004FEA19208DF80A0009F0FF0087
:1012E0008DF80B0000208DF80C008DF80D008DF8A6
:1012F0000E008DF80F008DF810008DF811001222ED
:101300006946AC20FFF77EFF05B0BDE8F0832DE90C
:10131000F04F87B004460D4616461F46DDE911AB77
:10132000DDF840904FF0000806E000200DF80800BE
:1013300008F1010000F0FF08B8F11C0FF5DB200AEE
:101340008DF80000E0B28DF80100280A8DF8020047
:10135000E8B28DF80300300A8DF80400F0B28DF881
:101360000500380A8DF80600F8B28DF807004FEA3C
:1013700019208DF8080009F0FF008DF809004FEAE8
:101380001A208DF80A000AF0FF008DF80B004FEAD2
:101390001B208DF812000BF0FF008DF8130013983E
:1013A000000A8DF814001398C0B28DF81500149837
:1013B000000A8DF816001498C0B28DF817001C2290
:1013C0006946AF20FFF795FE07B0BDE8F08F00003B
:1013D00000380140FE4A1080921C11807047FC4981
:1013E000891C08807047FA490880704730B5034669
:1013F0000C461546F748808849F24131884205D0AD
:10140000F448808845F21031884214D1F149488966
:10141000FFF7E9FF1812FFF7E2FFD8B2FFF7DFFF8F
:10142000EC498889FFF7DFFF2012FFF7D8FFE0B211
:10143000FFF7D5FF8CE0E748808845F210518842DD
:1014400020D1E4494889FFF7CEFF1812FFF7C7FF04
:10145000E0494989491C88B2FFF7C5FFD8B2FFF7B8
:10146000BEFFDC498889FFF7BEFF2012FFF7B7FFF8
:10147000D8498989491C88B2FFF7B5FFE0B2FFF768
:10148000AEFF65E0D348808841F66311884228D1D9
:10149000D048807920B9CF480088401EC01A83B256
:1014A000CC494889FFF79FFF1812FFF798FFD8B281
:1014B000FFF795FF1812FFF792FFD8B2FFF78FFFE3
:1014C000C4498889FFF78FFF2012FFF788FFE0B239
:1014D000FFF785FF2012FFF782FFE0B2FFF77FFFE3
:1014E00036E0BC48808846F6040188421DD1B948E0
:1014F0008079012804D1B7480088401EC01A83B201
:10150000B4494889FFF76FFF1812FFF768FFD8B298
:10151000FFF765FFAF498889FFF765FF2012FFF7E6
:101520005EFFE0B2FFF75BFF12E0AA488079012876
:1015300004D1A8480088401EC01A83B2A549488932
:101540001946FFF747FFA34988892146FFF742FF65
:10155000A04800899E490880881C058030BD2DE97F
:10156000F84F80460E4617461C46B3462046E31702
:1015700004EB5373DB1021464FEAE47C04EB5C7C04
:101580004FEAEC0CA4EBCC0CBCF1000F02D04FF0F6
:10159000010C01E04FF0000C6344224604EBD27CC6
:1015A0004FEA6C0C03FB0CF3DBB20093A7F12000B5
:1015B000C7B2002556E00C2C07D107EB470086493F
:1015C00001EB800010F8059013E0102C05D1834842
:1015D00000EB071010F805900BE0182C07D107EB73
:1015E000C7007F4901EB800010F8059001E0BDE8DD
:1015F000F88F4FF0000A2FE009F0800030B17948F1
:10160000028831464046FFF7F1FE07E00A9828B904
:101610007548028831464046FFF7E8FE4FEA4960C8
:101620004FEA1069701C86B26A484088B04200DCFC
:10163000DDE7A6EB0B00A0420AD15E4608F10100EF
:101640001FFA80F863480088404500DCCFE706E0D9
:101650000AF1010000F0FF0ABAF1080FCCDB00BF6D
:10166000681CC5B200988542A5DB00BFBFE710B576
:101670000246012000E050430B00A1F10104E1B259
:10168000F9D110BD2DE9FF4F81B0074691461E46A6
:101690000E9D4FF0000A002439E0301B401EC1B2FD
:1016A0000A20FFF7E4FFB9FBF0F00A21B0FBF1F2EA
:1016B00001FB1208BAF1000F16D1701EA04213DD13
:1016C000B8F1000F0ED10020AB4605EBDB714910DD
:1016D00001FB0471009088B22B4620220299FFF78B
:1016E0003EFF12E04FF0010A0020AB4605EBDB7134
:1016F000491001FB0471009088B208F13001CAB2B0
:101700002B460299FFF72BFF00BF601CC4B2B44206
:10171000C3DB05B0BDE8F08F2DE9F84704460D4660
:1017200090469946DDE9096704F0FF0A08EB0400DA
:101730001FFA80F809EB05001FFA80F916E044450E
:1017400002DB5446A81985B24D4500DB14E00020A9
:1017500000903A78334629462046FFF700FF30468E
:1017600006EBD07104EB61018CB27F1C38787E28C7
:1017700002DC38782028E2DA00BFBDE8F8871CB523
:101780001F201849088019A018210B46D222CDE944
:10179000001028210A20FFF7BFFF4FF478401149BD
:1017A0000880182001230090124802782821782010
:1017B000FFF768FF1F200B4908800FA018210B4678
:1017C000C822CDE9001050210A20FFF7A5FF1BE039
:1017D000FE07006CA00000206A990008DE9D00084A
:1017E000CEA300082C0000202E0000204D4F4445C1
:1017F0003A0000000C000020416E676C655F736565
:101800006C6563743A0000004FF47840FE4908802C
:10181000182001230090FD4802785021B420FFF7E2
:1018200031FF1F20F8490880F9A018210B46C82273
:10183000CDE9001078210A20FFF76EFF4FF47840C1
:10184000F1490880182003230090F4480278782199
:101850000846FFF717FF1F20EB490880F0A018216A
:101860000B46C822CDE90010A0210A20FFF754FF43
:101870004FF47840E4490880182003230090EB4897
:101880000278A0217820FFF7FDFE1F20DE490880A6
:10189000E7A018210B46C822CDE9001011460A2006
:1018A000FFF73AFF4FF47840D74908801820032308
:1018B0000090E1480278C8217820FFF7E3FEFFF7A7
:1018C00026F8DE4908601F20CF490880DCA01821D7
:1018D0000B46C822CDE90010F0210A20FFF71CFFBB
:1018E0004FF47840C8490880D448006807F058FE93
:1018F0000446182003232246F02100907820FFF7A9
:10190000C1FE1CBD08B5D04800880090BDF800009D
:1019100008BD10B504462046FFF765FD052004F01C
:1019200072FBFFF7EFFF10BDC8480089C649891E4A
:1019300008807047C4490880704730B5014601F0FF
:101940001F04C1F34513CA0AE50205EB431515440C
:10195000A8B230BD00BF0100A0F10102D0B2FAD19F
:10196000704710B503460C46B848808849F24131AB
:10197000884205D0B548808845F21031884214D19C
:10198000B2494889FFF72FFD1812FFF728FDD8B29A
:10199000FFF725FDAD498889FFF725FD2012FFF7E8
:1019A0001EFDE0B2FFF71BFDABE0A848808846F6BD
:1019B000040188421DD1A5488079012804D1A3489B
:1019C0000088401EC01A83B2A0494889FFF70BFD6A
:1019D0001812FFF704FDD8B2FFF701FD9B49888973
:1019E000FFF701FD2012FFF7FAFCE0B2FFF7F7FC6A
:1019F00087E09648808841F66311884247D1934832
:101A00008079A8B991480088401EC01A83B28F49D6
:101A10004889FFF7E8FC0020FFF7E1FC0020FFF712
:101A2000DEFC1812FFF7DBFCD8B2FFF7D8FC16E09B
:101A300086494889FFF7D7FC1812FFF7D0FCD8B2C7
:101A4000FFF7CDFC81490988491EC1F30F20FFF73C
:101A5000C6FC7E490978491EC8B2FFF7C0FC7B4925
:101A60008889FFF7C0FC2012FFF7B9FCE0B2FFF74E
:101A7000B6FC76494988491EC1F30F20FFF7AFFC39
:101A800072498978491EC8B2FFF7A9FC39E06F484E
:101A9000808845F21051884220D16C494889FFF76F
:101AA000A2FC1812FFF79BFC68494989491C88B2BF
:101AB000FFF799FCD8B2FFF792FC64498889FFF7D9
:101AC00092FC2012FFF78BFC60498989491C88B27F
:101AD000FFF789FCE0B2FFF782FC12E05B488079F7
:101AE000012804D159480088401EC01A83B25749C2
:101AF00048891946FFF76EFC544988892146FFF74B
:101B000069FC10BD2DE9F04105460E460024002772
:101B1000A0464E480088A84203DD4C484088B042A9
:101B200002DC0020BDE8F08131462846FFF719FFAE
:101B30004648808849F24131884211D04348808824
:101B400046F6040188420BD04048808845F21031A7
:101B5000884205D03D48808841F66311884203D110
:101B60002E20FFF740FC0DE03848808845F21051E8
:101B7000884204D14FF43850FFF735FC02E02220B0
:101B8000FFF731FC3148808849F22031884202D188
:101B90000220FFF7DFFEFFF7B5FE04462B488088E2
:101BA00041F66311884201D12046BBE70220FFF7CE
:101BB000D1FEFFF7A7FE04462448808849F2413150
:101BC00088420BD02148808845F21031884205D0E8
:101BD0001E48808845F2105188420AD10220FFF742
:101BE000B9FEFFF78FFE8046E7B24FF6FF7000EABE
:101BF00007271648808849F2253188423BD0134890
:101C0000808844F2355123E02C0000200D00002094
:101C1000416E676C655F303A000000000E000020E6
:101C2000416E676C655F313A000000000F000020D4
:101C300053746172743A0000100000200400002008
:101C4000416E676C653A00000008006CA00000203F
:101C5000884210D0F8488088091F88420BD0F64887
:101C600080884BF20551884205D0F34880884CF2B9
:101C70000551884201D1204654E7EF48808849F257
:101C8000413188420BD0EC48808845F210318842BF
:101C900005D0E948808845F21051884207D1E0120A
:101CA000C002B91240EA411040EAE8203AE7204673
:101CB000FFF743FE36E700B5DF48808849F241313F
:101CC000884211D0DC48808846F6040188420BD057
:101CD000D948808845F21031884205D0D64880889E
:101CE00041F66311884203D12920FFF77CFB0FE006
:101CF000D148808845F21051884204D14FF42450D5
:101D0000FFF771FB04E040F273110720FFF762FB5D
:101D100000BD00B5C848808849F24131884211D0E1
:101D2000C548808846F6040188420BD0C2488088A6
:101D300045F21031884205D0BF48808841F66311D2
:101D4000884203D12820FFF74EFB0EE0BA48808876
:101D500045F21051884204D14FF42050FFF743FB65
:101D600003E000210720FFF735FB00BD70B50446F6
:101D700000230026B048807901280BD1AE48808826
:101D800046F60401884205D0AB48808841F66311CD
:101D9000884208D1A8488079F0B9A748808841F6E0
:101DA0006311884218D1082C15D2DFE804F004062C
:101DB000080A0C0E101206240DE007240BE0042480
:101DC00009E0052407E0012405E0002403E00324E2
:101DD00001E0022400BF00BF9748808849F24131EA
:101DE000884217D09448808846F60401884211D072
:101DF0009148808845F2103188420BD08E48808807
:101E000045F21051884205D08B48808841F6631115
:101E100088427DD1082C1CD2DFE804F00406090CAE
:101E20000F12151800BF14E043F0800311E043F0D7
:101E300040030EE043F0C0030BE043F0200308E052
:101E400043F0600305E043F0A00302E043F0E00349
:101E500000BF00BF7848808845F21051884202D107
:101E60004FF4585600E036267348808845F210310A
:101E700088420DD07048808845F21051884207D0C2
:101E80006D48808841F66311884201D043F0080311
:101E90006948808846F60401884201D143F0020374
:101EA00019463046FFF796FA6348808841F6631179
:101EB00088421DD003F0200068B15F4800885E4969
:101EC0004988884214DA5C48058840885A49088065
:101ED000084645800CE058480088574949888842A0
:101EE00006DD5548058840885349088008464580E6
:101EF0005148808845F21051884254D14E49488952
:101F0000FFF771FA0020FFF76AFA4B49498900E0B0
:101F100078E0491C88B2FFF766FA0020FFF75FFA05
:101F200045494989891C88B2FFF75DFA4249098809
:101F3000491EC1F30F20FFF752FA3F494989C91CD6
:101F400088B2FFF750FA3C490978491EC8B2FFF73A
:101F500046FA39498889FFF746FA0020FFF73FFA29
:101F600035498989491C88B2FFF73DFA0020FFF7FF
:101F700036FA31498989891C88B2FFF734FA2E492B
:101F80004988491EC1F30F20FFF729FA2A49898998
:101F9000C91C88B2FFF727FA27498978491EC8B2B9
:101FA000FFF71DFA58E024494889FFF71CFA002082
:101FB000FFF715FA0020FFF712FA1F490988491E9A
:101FC000C1F30F20FFF70BFA1B490978491EC8B26D
:101FD000FFF705FA18498889FFF705FA0020FFF78F
:101FE000FEF90020FFF7FBF913494988491EC1F3A8
:101FF0000F20FFF7F4F910498978491EC8B2FFF79E
:10200000EEF929E0082C1FD2DFE804F004070A0DDE
:102010000F12181B43F0300316E043F0100313E0D7
:1020200043F0200310E000BF0EE043F038030BE064
:1020300043F0280308E00000A000002043F018034C
:1020400002E043F0080300BF00BF032643F48053BF
:1020500019463046FFF7BEF970BD30B504460D464F
:1020600029462046FFF77DFCFFF75EFCF748008815
:10207000F749088030BD2DE9F0470446BE20FFF740
:10208000B2F90520FFF7ABF9204606F0C0FE07467F
:102090004FF06632EF4B06F009FF054606F08AFE68
:1020A0001FFA80F94846FFF79AF90120FFF797F9E0
:1020B000FF20FFF794F90020FFF791F90020FFF7C8
:1020C0008EF9BDE8F08710B50446002C66D1E249D0
:1020D0008871F02008804FF4A070488008468088FE
:1020E00049F2413188420BD0DB48808846F6040132
:1020F000884205D0D848808845F2103188421AD1EC
:102100002C20D54908812A2048812B208881084627
:10211000808846F60401884205D0CF48808845F281
:102120001031884206D14FF4A070CB4908804FF49B
:10213000F0704880A1E0C848808845F2105188427C
:1021400010D14FF43050C44908814FF428504881D1
:102150004FF42C5088814FF4F07008804FF4487091
:1021600048808AE0BC48808841F6631188420DD1DE
:102170002C20B94908812B2048812A2088814FF4DE
:10218000F07008804FF44870488076E02220B24911
:10219000088120204881212088816EE00120AE49FD
:1021A00088714FF4A0700880F0204880084680882D
:1021B00049F24131884205D0A748808845F2103164
:1021C000884207D12C20A44908812A2048812B204D
:1021D00088813FE0A048808846F60401884207D104
:1021E0002C209D4908812B2048812A20888131E0BC
:1021F0009948808845F21051884210D14FF43050F0
:10220000954908814FF4285048814FF42C5088811B
:102210004FF4487008804FF4F07048801AE08E4800
:10222000808841F6631188420DD12C208A490881AB
:102230002A2048812B2088814FF4487008804FF471
:10224000F070488006E022208349088121204881DF
:10225000202088818048808846F60401884205D085
:102260007D48808845F21031884206D14FF4F070E5
:10227000794908804FF4A07048800020FFF776FD70
:1022800010BD2DE9F04F86B004460D4690469946A4
:1022900004EB0800401E86B205EB0900401E87B221
:1022A0006D48808849F24131884215D06A4880885B
:1022B00045F2103188420FD06748808846F6040105
:1022C000884209D064488079012826D162488088F4
:1022D00041F66311884220D15F494889FFF783F8AE
:1022E0002012FFF77CF8E0B2FFF779F83012FFF721
:1022F00076F8F0B2FFF773F857498889FFF773F85B
:102300002812FFF76CF8E8B2FFF769F83812FFF708
:1023100066F8F8B2FFF763F8C0E04F48808841F6EE
:102320006311884234D14C480088A0EB0800001BA0
:1023300084B205EB0900401E1FFA80F9464948891E
:10234000FFF751F82012FFF74AF8E0B2FFF747F81D
:1023500004EB0801491EC1F30F20FFF740F804EB1E
:102360000801491EC8B2FFF73AF83B498889FFF7D0
:102370003AF82812FFF733F8E8B2FFF730F84FEADF
:102380002920FFF72CF809F0FF00FFF728F885E077
:102390003148808845F21051884244D12E494889FD
:1023A000FFF721F82012FFF71AF82B494989491C39
:1023B00088B2FFF718F8E0B2FFF711F8264949890B
:1023C000891C88B2FFF70FF83012FFF708F822498E
:1023D0004989C91C88B2FFF706F8F0B2FEF7FFFF83
:1023E0001D498889FEF7FFFF2812FEF7F8FF1A49FA
:1023F0008989491C88B2FEF7F6FFE8B2FEF7EFFFC5
:1024000015498989891C88B2FEF7EDFF3812FEF75D
:10241000E6FF11498989C91C88B2FEF7E4FFF8B2CA
:10242000FEF7DDFF3AE00C488079012816D1AA4674
:10243000BB4609480088801B401E80B201900648B8
:102440000088001B401E80B200900BE02C00002092
:102450000008006C66660440A0000020A246B34657
:102460000195009750200590512004905220039030
:102470005320029051460598FEF7ACFF5946049848
:10248000FEF7A8FF01990398FEF7A4FF00990298B0
:10249000FEF7A0FF29462046FFF763FA06B0BDE825
:1024A000F08F70B504460026FD48058840884543F6
:1024B000FB48808846F60401884216D1F8488079A6
:1024C000012812D10020F64988712A2048812B204A
:1024D000888100210846FFF744FA0120F0498871FD
:1024E0002B2048812A20888103E000210846FFF73D
:1024F00038FAFFF719FA002602E0EA480480761C51
:10250000AE42FAD370BD00B59FB00121080204F0BD
:1025100008FA01214FF4B47004F010FA0120ADF86C
:10252000780010208DF87B0003208DF87A001EA91A
:10253000DD4803F047FF4CF23370ADF87800182007
:102540008DF87B0003208DF87A001EA9D74803F090
:1025500039FF4FF68070ADF8780018208DF87B00B9
:1025600003208DF87A001EA9D14803F02BFF41F219
:102570000100ADF8780018208DF87B0003208DF85D
:102580007A001EA9CB4803F01DFF0120089000200F
:1025900009900F200A9000200B900C900D900E9047
:1025A0000190029003200390002004900590069073
:1025B000079006200F90002010901190102012908C
:1025C0000020139015901490169017904FF480509F
:1025D0001890002019904FF480401A9000201B9012
:1025E00008A81C9001A81D900FA805F091FD0121DD
:1025F000062005F0F5FE322003F029FD0020FFF74C
:1026000088F9A749888008468088FF280ADB0846A1
:1026100080884FF6FF71884204D0A1488088B0F5C9
:10262000134F7CD1D320FEF7DEFEFFF76BF99C49F8
:102630008880FFF767F99A498880FFF763F998491E
:102640008880084680884FF6FF7101EA002094498F
:102650008880FFF757F99249898808439049888014
:102660000846808849F24131884258D0BF20FEF7A1
:10267000BAFEFFF747F98A498880FFF743F988498E
:102680008880FFF73FF986498880FFF73BF9844946
:102690008880084680884FF6FF7101EA0020804953
:1026A0008880FFF72FF97E49898808437C49888014
:1026B0000846808846F6040188427AD0D420FEF786
:1026C00092FEFFF71FF976498880FFF71BF97449DE
:1026D0008880FFF717F972498880084680884FF68E
:1026E000FF7101EA00206E498880FFF70BF96C4901
:1026F000898808436A4988800846808845F21031F5
:10270000884256D04FF45A40FEF76DFEFFF7FAF8B4
:10271000634988804FF45B40FEF765FE00E048E0C7
:10272000FFF7F0F85E498880084680884FF6FF7111
:1027300001EA00205A4988804FF45C40FEF753FEBE
:10274000FFF7E0F8564989880843554988800846CC
:102750008088B0F5004F02D145F210508880504873
:10276000808845F21051884223D0A120FEF73BFE1D
:10277000FFF7C8F84A498880FFF7C4F848498880BD
:10278000084680884FF6FF7101EA0020444988809E
:10279000FFF7B8F8424989880843414988800846CC
:1027A000808845F26171884203D141F663103C494B
:1027B00088803B48818840A005F066FF38488088C3
:1027C00049F2413188426AD1CF20FEF70CFE002049
:1027D000FEF705FEC120FEF702FE3020FEF7FFFDEA
:1027E000ED20FEF700FE6420FEF7F9FD0320FEF762
:1027F000F6FD1220FEF7F3FD8120FEF7F0FDE82044
:10280000FEF7F1FD8520FEF7EAFD1020FEF7E7FD5B
:102810007A20FEF7E4FDCB20FEF7E5FD3920FEF738
:10282000DEFD2C20FEF7DBFD0020FEF7D8FD342076
:10283000FEF7D5FD0220FEF7D2FDF720FEF7D3FD0F
:102840002020FEF7CCFDEA20FEF7CDFD0020FEF7AC
:10285000C6FD0020FEF7C3FDC020FEF7C4FD1B200F
:10286000FEF7BDFDC120FEF7BEFD0120FEF7B7FD5E
:10287000C520FEF7B8FD3020FEF7B1FD3020FEF791
:10288000AEFDC720FEF7AFFDB720FEF7A8FD36204E
:10289000FEF7A9FD4820FEF7A2FD3A2014E0BFE0B4
:1028A000A00000200008006C000C01400014014052
:1028B0000018014000200140204C43442049443A84
:1028C00025780D0A00000000FEF78DFD5520FEF76B
:1028D00086FDB120FEF787FD0020FEF780FD1A205F
:1028E000FEF77DFDB620FEF77EFD0A20FEF777FDA0
:1028F000A220FEF774FDF220FEF775FD0020FEF722
:102900006EFD2620FEF76FFD0120FEF768FDE0203A
:10291000FEF769FD0F20FEF762FD2A20FEF75FFD3E
:102920002820FEF75CFD0820FEF759FD0E20FEF77B
:1029300056FD0820FEF753FD5420FEF750FDA92058
:10294000FEF74DFD4320FEF74AFD0A20FEF747FD46
:102950000F20FEF744FD0020FEF741FD0020FEF7AA
:102960003EFD0020FEF73BFD0020FEF738FDE12094
:10297000FEF739FD0020FEF732FD1520FEF72FFD92
:102980001720FEF72CFD0720FEF729FD1120FEF78A
:1029900026FD0620FEF723FD2B20FEF720FD562006
:1029A000FEF71DFD3C20FEF71AFD0520FEF717FD82
:1029B0001020FEF714FD0F20FEF711FD3F20FEF75B
:1029C0000EFD3F20FEF70BFD0F20FEF708FD2B202C
:1029D000FEF709FD0020FEF702FD0020FEF7FFFCD8
:1029E0000120FEF7FCFC3F20FEF7F9FC2A20FEF751
:1029F000FAFC0020FEF7F3FC0020FEF7F0FC0020BC
:102A0000FEF7EDFCEF20FEF7EAFC1120FEF7EBFCF1
:102A1000782003F01CFB2920FEF7E5FC03F01DB92C
:102A2000FE48808846F6040188427CD11120FEF7DA
:102A3000DAFC142003F00BFBD020FEF7D4FC0720B7
:102A4000FEF7CDFC4220FEF7CAFC1D20FEF7C7FCB6
:102A5000D120FEF7C8FC0020FEF7C1FC1A20FEF7CB
:102A6000BEFC0920FEF7BBFCD220FEF7BCFC012017
:102A7000FEF7B5FC2220FEF7B2FCC020FEF7B3FC47
:102A80001020FEF7ACFC3B20FEF7A9FC0020FEF76F
:102A9000A6FC0220FEF7A3FC1120FEF7A0FCC52037
:102AA000FEF7A1FC0320FEF79AFCC820FEF79BFC72
:102AB0000020FEF794FC2520FEF791FC2120FEF774
:102AC0008EFC0520FEF78BFC0020FEF788FC0A2018
:102AD000FEF785FC6520FEF782FC2520FEF77FFCD3
:102AE0007720FEF77CFC5020FEF779FC0F20FEF7E4
:102AF00076FC0020FEF773FCF820FEF774FC012042
:102B0000FEF76DFCFE20FEF76EFC0020FEF767FC72
:102B10000220FEF764FC2020FEF765FC3620FEF75D
:102B200062FC082000E02CE0FEF759FC3A20FEF79A
:102B30005AFC5520FEF753FC2B20FEF754FC0020D6
:102B4000FEF74DFC0020FEF74AFC0120FEF747FC93
:102B50003F20FEF744FC2A20FEF745FC0020FEF74C
:102B60003EFC0020FEF73BFC0120FEF738FCDF2096
:102B7000FEF735FC782003F06AFA2920FEF733FCD3
:102B80004CE7A648808845F21031884240F07C87A7
:102B9000ED20FEF728FC0120FEF721FCFE20FEF7C9
:102BA0001EFCEE20FEF71FFCDE20FEF718FC2120A5
:102BB000FEF715FCF120FEF716FC0120FEF70FFCD6
:102BC000DF20FEF710FC1020FEF709FCC420FEF702
:102BD0000AFC8F20FEF703FCC620FEF704FC002051
:102BE000FEF7FDFBE220FEF7FAFBE220FEF7F7FB23
:102BF000E220FEF7F4FBBF20FEF7F5FBAA20FEF76C
:102C0000EEFBB020FEF7EFFB0D20FEF7E8FB002007
:102C1000FEF7E5FB0D20FEF7E2FB0020FEF7DFFBF1
:102C20001120FEF7DCFB0020FEF7D9FB1920FEF790
:102C3000D6FB0020FEF7D3FB2120FEF7D0FB0020BF
:102C4000FEF7CDFB2D20FEF7CAFB0020FEF7C7FBE9
:102C50003D20FEF7C4FB0020FEF7C1FB5D20FEF720
:102C6000BEFB0020FEF7BBFB5D20FEF7B8FB00209B
:102C7000FEF7B5FBB120FEF7B6FB8020FEF7AFFBF9
:102C80000020FEF7ACFB8B20FEF7A9FB0020FEF72F
:102C9000A6FB9620FEF7A3FB0020FEF7A0FBB220C8
:102CA000FEF7A1FB0020FEF79AFB0020FEF797FB42
:102CB0000220FEF794FB0020FEF791FB0320FEF7B5
:102CC0008EFB0020FEF78BFBB320FEF78CFB002071
:102CD000FEF785FB0020FEF782FB0020FEF77FFB5E
:102CE0000020FEF77CFB0020FEF779FB0020FEF7BA
:102CF00076FB0020FEF773FB0020FEF770FB002040
:102D0000FEF76DFB0020FEF76AFB0020FEF767FB75
:102D10000020FEF764FB0020FEF761FB0020FEF7B9
:102D20005EFB0020FEF75BFB0020FEF758FB002057
:102D3000FEF755FB0020FEF752FB0020FEF74FFB8D
:102D40000020FEF74CFB0020FEF749FB0020FEF7B9
:102D500046FB0020FEF743FB0020FEF740FBB420BB
:102D6000FEF741FB8B20FEF73AFB0020FEF737FB16
:102D70009620FEF734FB0020FEF731FBA120FEF782
:102D80002EFB0020FEF72BFBB520FEF72CFB0220CC
:102D9000FEF725FB0020FEF722FB0320FEF71FFBBA
:102DA0000020FEF71CFB0420FEF719FB0020FEF7B5
:102DB00016FBB620FEF717FB0020FEF710FB0020E5
:102DC000FEF70DFBB720FEF70EFB0020FEF707FB1A
:102DD0000020FEF704FB3F20FEF701FB0020FEF77A
:102DE000FEFA5E20FEF7FBFA0020FEF7F8FA6420F8
:102DF000FEF7F5FA0020FEF7F2FA8C20FEF7EFFA64
:102E00000020FEF7ECFAAC20FEF7E9FA0020FEF70E
:102E1000E6FADC20FEF7E3FA002001E0A000002043
:102E2000FEF7DDFA7020FEF7DAFA0020FEF7D7FA97
:102E30009020FEF7D4FA0020FEF7D1FAEB20FEF73F
:102E4000CEFA0020FEF7CBFADC20FEF7C8FA00200D
:102E5000FEF7C5FAB820FEF7C6FA0020FEF7BFFA63
:102E60000020FEF7BCFA0020FEF7B9FA0020FEF7BA
:102E7000B6FA0020FEF7B3FA0020FEF7B0FA002001
:102E8000FEF7ADFA0020FEF7AAFABA20FEF7ABFA79
:102E90002420FEF7A4FA0020FEF7A1FA0020FEF796
:102EA0009EFA0020FEF79BFAC120FEF79CFA202034
:102EB000FEF795FA0020FEF792FA5420FEF78FFAFB
:102EC0000020FEF78CFAFF20FEF789FA0020FEF7BB
:102ED00086FAC220FEF787FA0A20FEF780FA002061
:102EE000FEF77DFA0420FEF77AFA0020FEF777FA63
:102EF000C320FEF778FA3C20FEF771FA0020FEF7B7
:102F00006EFA3A20FEF76BFA0020FEF768FA3920D5
:102F1000FEF765FA0020FEF762FA3720FEF75FFA47
:102F20000020FEF75CFA3C20FEF759FA0020FEF77D
:102F300056FA3620FEF753FA0020FEF750FA3220F8
:102F4000FEF74DFA0020FEF74AFA2F20FEF747FA67
:102F50000020FEF744FA2C20FEF741FA0020FEF78D
:102F60003EFA2920FEF73BFA0020FEF738FA262029
:102F7000FEF735FA0020FEF732FA2420FEF72FFA8A
:102F80000020FEF72CFA2420FEF729FA0020FEF795
:102F900026FA2320FEF723FA0020FEF720FA3C2031
:102FA000FEF71DFA0020FEF71AFA3620FEF717FA90
:102FB0000020FEF714FA3220FEF711FA0020FEF787
:102FC0000EFA2F20FEF70BFA0020FEF708FA2C204D
:102FD000FEF705FA0020FEF702FA2920FEF7FFF9B6
:102FE0000020FEF7FCF92620FEF7F9F90020FEF795
:102FF000F6F92420FEF7F3F90020FEF7F0F924207B
:10300000FEF7EDF90020FEF7EAF92320FEF7E7F9D5
:103010000020FEF7E4F9C420FEF7E5F96220FEF790
:10302000DEF90020FEF7DBF90520FEF7D8F90020D5
:10303000FEF7D5F98420FEF7D2F90020FEF7CFF98C
:10304000F020FEF7CCF90020FEF7C9F91820FEF7B2
:10305000C6F90020FEF7C3F9A420FEF7C0F900204E
:10306000FEF7BDF91820FEF7BAF90020FEF7B7F910
:103070005020FEF7B4F90020FEF7B1F90C20FEF75E
:10308000AEF90020FEF7ABF91720FEF7A8F90020F3
:10309000FEF7A5F99520FEF7A2F90020FEF79FF9AB
:1030A000F320FEF79CF90020FEF799F9E620FEF7E1
:1030B00096F90020FEF793F9C520FEF794F9322027
:1030C000FEF78DF90020FEF78AF94420FEF787F914
:1030D0000020FEF784F96520FEF781F90020FEF755
:1030E0007EF97620FEF77BF90020FEF778F988203C
:1030F000FEF775F90020FEF772F9C620FEF773F9A6
:103100002020FEF76CF90020FEF769F91720FEF782
:1031100066F90020FEF763F90120FEF760F9002050
:10312000FEF75DF9C720FEF75EF90020FEF757F9BC
:103130000020FEF754F90020FEF751F90020FEF7B9
:103140004EF9C820FEF74FF90020FEF748F900209D
:10315000FEF745F90020FEF742F90020FEF73FF99F
:10316000C920FEF740F90020FEF739F90020FEF7EC
:1031700036F90020FEF733F90020FEF730F9002081
:10318000FEF72DF90020FEF72AF90020FEF727F9B7
:103190000020FEF724F90020FEF721F90020FEF7B9
:1031A0001EF90020FEF71BF90020FEF718F9002099
:1031B000FEF715F90020FEF712F90020FEF70FF9CF
:1031C0000020FEF70CF9E020FEF70DF91620FEF7BF
:1031D00006F90020FEF703F91C20FEF700F9002095
:1031E000FEF7FDF82120FEF7FAF80020FEF7F7F8C9
:1031F0003620FEF7F4F80020FEF7F1F84620FEF73F
:10320000EEF80020FEF7EBF85220FEF7E8F8002079
:10321000FEF7E5F86420FEF7E2F80020FEF7DFF89D
:103220007A20FEF7DCF80020FEF7D9F88B20FEF7B5
:10323000D6F80020FEF7D3F89920FEF7D0F800204A
:10324000FEF7CDF8A820FEF7CAF80020FEF7C7F871
:10325000B920FEF7C4F80020FEF7C1F8C420FEF73D
:10326000BEF80020FEF7BBF8CA20FEF7B8F8002031
:10327000FEF7B5F8D220FEF7B2F80020FEF7AFF85F
:10328000D920FEF7ACF80020FEF7A9F8E020FEF701
:10329000A6F80020FEF7A3F8F320FEF7A0F8002020
:1032A000FEF79DF8E120FEF79EF81620FEF797F84E
:1032B0000020FEF794F81C20FEF791F80020FEF79E
:1032C0008EF82220FEF78BF80020FEF788F83620D3
:1032D000FEF785F80020FEF782F84520FEF77FF81C
:1032E0000020FEF77CF85220FEF779F80020FEF768
:1032F00076F86420FEF773F80020FEF770F87A2065
:10330000FEF76DF80020FEF76AF88B20FEF767F8ED
:103310000020FEF764F89920FEF761F80020FEF720
:103320005EF8A820FEF75BF80020FEF758F8B920F9
:10333000FEF755F80020FEF752F8C420FEF74FF8CC
:103340000020FEF74CF8CA20FEF749F80020FEF7EF
:1033500046F8D220FEF743F80020FEF740F8D820C8
:10336000FEF73DF80020FEF73AF8E020FEF737F8C8
:103370000020FEF734F8F320FEF731F80020FEF7C6
:103380002EF8E220FEF72FF80520FEF728F800209F
:10339000FEF725F80B20FEF722F80020FEF71FF8B5
:1033A0001B20FEF71CF80020FEF719F83420FEF76A
:1033B00016F80020FEF713F84420FEF710F800205E
:1033C000FEF70DF84F20FEF70AF80020FEF707F889
:1033D0006120FEF704F80020FEF701F87920FDF7E0
:1033E000FEFF0020FDF7FBFF8820FDF7F8FF00201F
:1033F000FDF7F5FF9720FDF7F2FF0020FDF7EFFF47
:10340000A620FDF7ECFF0020FDF7E9FFB720FDF750
:10341000E6FF0020FDF7E3FFC220FDF7E0FF0020FC
:10342000FDF7DDFFC720FDF7DAFF0020FDF7D7FF2E
:10343000D120FDF7D4FF0020FDF7D1FFD620FDF706
:10344000CEFF0020FDF7CBFFDD20FDF7C8FF0020F9
:10345000FDF7C5FFF320FDF7C2FF0020FDF7BFFF1A
:10346000E320FDF7C0FF0520FDF7B9FF0020FDF7C1
:10347000B6FF0A20FDF7B3FF0020FDF7B0FF1C20C8
:10348000FDF7ADFF0020FDF7AAFF3320FDF7A7FFF2
:103490000020FDF7A4FF4420FDF7A1FF0020FDF769
:1034A0009EFF5020FDF79BFF0020FDF798FF622054
:1034B000FDF795FF0020FDF792FF7820FDF78FFFC5
:1034C0000020FDF78CFF8820FDF789FF0020FDF725
:1034D00086FF9720FDF783FF0020FDF780FFA620E1
:1034E000FDF77DFF0020FDF77AFFB720FDF777FF9E
:1034F0000020FDF774FFC220FDF771FF0020FDF7EB
:103500006EFFC720FDF76BFF0020FDF768FFD1209D
:10351000FDF765FF0020FDF762FFD520FDF75FFF97
:103520000020FDF75CFFDD20FDF759FF0020FDF7CF
:1035300056FFF320FDF753FF0020FDF750FFE42076
:10354000FDF751FF0120FDF74AFF0020FDF747FF7F
:103550000120FDF744FF0020FDF741FF0220FDF7A9
:103560003EFF0020FDF73BFF2A20FDF738FF00203B
:10357000FDF735FF3C20FDF732FF0020FDF72FFF60
:103580004B20FDF72CFF0020FDF729FF5D20FDF704
:1035900026FF0020FDF723FF7420FDF720FF002009
:1035A000FDF71DFF8420FDF71AFF0020FDF717FF30
:1035B0009320FDF714FF0020FDF711FFA220FDF777
:1035C0000EFF0020FDF70BFFB320FDF708FF0020E2
:1035D000FDF705FFBE20FDF702FF0020FDF7FFFE0F
:1035E000C420FDF7FCFE0020FDF7F9FECD20FDF71D
:1035F000F6FE0020FDF7F3FED320FDF7F0FE0020DD
:10360000FDF7EDFEDD20FDF7EAFE0020FDF7E7FE09
:10361000F320FDF7E4FE0020FDF7E1FEE520FDF7D5
:10362000E2FE0020FDF7DBFE0020FDF7D8FE0020C3
:10363000FDF7D5FE0020FDF7D2FE0220FDF7CFFEFC
:103640000020FDF7CCFE2920FDF7C9FE0020FDF784
:10365000C6FE3C20FDF7C3FE0020FDF7C0FE4B2058
:10366000FDF7BDFE0020FDF7BAFE5D20FDF7B7FEB9
:103670000020FDF7B4FE7420FDF7B1FE0020FDF739
:10368000AEFE8420FDF7ABFE0020FDF7A8FE9320E0
:10369000FDF7A5FE0020FDF7A2FEA220FDF79FFE8C
:1036A0000020FDF79CFEB320FDF799FE0020FDF7FA
:1036B00096FEBE20FDF793FE0020FDF790FEC4208D
:1036C000FDF78DFE0020FDF78AFECD20FDF787FE79
:1036D0000020FDF784FED320FDF781FE0020FDF7DA
:1036E0007EFEDC20FDF77BFE0020FDF778FEF32058
:1036F000FDF775FE0020FDF772FEE620FDF773FE74
:103700001120FDF76CFE0020FDF769FE3420FDF767
:1037100066FE0020FDF763FE5620FDF760FE0020E8
:10372000FDF75DFE7620FDF75AFE0020FDF757FEFF
:103730007720FDF754FE0020FDF751FE6620FDF7CF
:103740004EFE0020FDF74BFE8820FDF748FE0020CE
:10375000FDF745FE9920FDF742FE0020FDF73FFEF4
:10376000BB20FDF73CFE0020FDF739FE9920FDF758
:1037700036FE0020FDF733FE6620FDF730FE002008
:10378000FDF72DFE5520FDF72AFE0020FDF727FE50
:103790005520FDF724FE0020FDF721FE4520FDF712
:1037A0001EFE0020FDF71BFE4320FDF718FE002043
:1037B000FDF715FE4420FDF712FE0020FDF70FFE79
:1037C000E720FDF710FE3220FDF709FE0020FDF78F
:1037D00006FE5520FDF703FE0020FDF700FE7620D3
:1037E000FDF7FDFD0020FDF7FAFD6620FDF7F7FD72
:1037F0000020FDF7F4FD6720FDF7F1FD0020FDF747
:10380000EEFD6720FDF7EBFD0020FDF7E8FD8720CA
:10381000FDF7E5FD0020FDF7E2FD9920FDF7DFFD56
:103820000020FDF7DCFDBB20FDF7D9FD0020FDF7F2
:10383000D6FD9920FDF7D3FD0020FDF7D0FD7720C0
:10384000FDF7CDFD0020FDF7CAFD4420FDF7C7FDC3
:103850000020FDF7C4FD5620FDF7C1FD0020FDF757
:10386000BEFD2320FDF7BBFD0020FDF7B8FD332092
:10387000FDF7B5FD0020FDF7B2FD4520FDF7AFFDDA
:103880000020FDF7ACFDE820FDF7ADFD0020FDF7C1
:10389000A6FD0020FDF7A3FD9920FDF7A0FD002067
:1038A000FDF79DFD8720FDF79AFD0020FDF797FDB0
:1038B0008820FDF794FD0020FDF791FD7720FDF7AE
:1038C0008EFD0020FDF78BFD6620FDF788FD0020B2
:1038D000FDF785FD8820FDF782FD0020FDF77FFDC7
:1038E000AA20FDF77CFD0020FDF779FDBB20FDF748
:1038F00076FD0020FDF773FD9920FDF770FD002097
:10390000FDF76DFD6620FDF76AFD0020FDF767FD00
:103910005520FDF764FD0020FDF761FD5520FDF702
:103920005EFD0020FDF75BFD4420FDF758FD002003
:10393000FDF755FD4420FDF752FD0020FDF74FFD3A
:103940005520FDF74CFD0020FDF749FDE920FDF76E
:103950004AFDAA20FDF743FD0020FDF740FD0020B1
:10396000FDF73DFD0020FDF73AFD0020FDF73BFD92
:10397000AA20FDF734FDCF20FDF735FD0020FDF72F
:103980002EFD0020FDF72BFD0020FDF728FD002077
:10399000FDF725FD0020FDF722FD0020FDF71FFDAE
:1039A0000020FDF71CFD0020FDF719FD0020FDF7AC
:1039B00016FD0020FDF713FD0020FDF710FD00208F
:1039C000FDF70DFD0020FDF70AFD0020FDF707FDC6
:1039D0000020FDF704FD0020FDF701FD0020FDF7AC
:1039E000FEFCF020FDF7FFFC0020FDF7F8FC502066
:1039F000FDF7F5FC0020FDF7F2FC0020FDF7EFFCE1
:103A00000020FDF7ECFCF320FDF7EDFC0020FDF7B6
:103A1000E6FCF920FDF7E7FC0620FDF7E0FC1020AE
:103A2000FDF7DDFC2920FDF7DAFC0020FDF7D7FCCF
:103A30003A20FDF7D8FC5520FDF7D1FC1120FDF709
:103A4000D2FC642002F003FB2920FDF7CCFC3520DA
:103A5000FDF7C9FC0020FDF7C2FC5120FDF7C3FCB7
:103A6000FF20FDF7BCFC5320FDF7BDFC2C20FDF72B
:103A7000B6FC5520FDF7B7FC8220FDF7B0FC2C20EA
:103A8000FDF7B1FC02F0E9B8FE48808845F210511C
:103A900088427DD155214FF47040FDF79BFCAA214F
:103AA0004FF20100FDF796FC52214FF20200FDF7A4
:103AB00091FC08214FF20300FDF78CFC01214FF22D
:103AC0000400FDF787FC0D214FF43040FDF782FC28
:103AD0000D214BF20100FDF77DFC0D214BF20200A0
:103AE000FDF778FC34214FF43640FDF773FC3421A8
:103AF0004BF20160FDF76EFC34214BF20260FDF7E2
:103B000069FC0D214FF43140FDF764FC0D214BF2AF
:103B10000110FDF75FFC0D214BF20210FDF75AFC7E
:103B200034214FF43740FDF755FC34214BF201703E
:103B3000FDF750FC34214BF20270FDF74BFC0021E5
:103B40004FF43240FDF746FC00214BF20120FDF717
:103B500041FC00214BF20220FDF73CFC24214FF4F4
:103B60003840FDF737FC24214BF60100FDF732FC0D
:103B700024214BF60200FDF72DFC01214FF43F40BC
:103B8000FDF728FC0F214FF43340FDF723FC00E044
:103B9000FDE30F214BF20130FDF71CFC0F214BF22E
:103BA0000230FDF717FC34214FF43940FDF712FCC9
:103BB00034214BF60110FDF70DFC34214BF60210B9
:103BC000FDF708FC08214FF43540FDF703FC082100
:103BD0004BF20150FDF7FEFB08214BF20250FDF7BE
:103BE000F9FB03214FF44240FDF7F4FB24214FF48D
:103BF0003A40FDF7EFFB24214BF60120FDF7EAFBED
:103C000024214BF60220FDF7E5FB00214FF43C4058
:103C1000FDF7E0FB78214BF60140FDF7DBFB0021CF
:103C20004BF60240FDF7D6FB00214FF43D40FDF777
:103C3000D1FB78214BF60150FDF7CCFB00214BF670
:103C40000250FDF7C7FB00214FF43E40FDF7C2FBD9
:103C500064214BF60160FDF7BDFB00214FF451409C
:103C6000FDF7B8FB33214DF20110FDF7B3FB002146
:103C70004DF20210FDF7AEFB34214DF20310FDF7BB
:103C8000A9FB00214DF20410FDF7A4FB3A214DF2EF
:103C90000510FDF79FFB00214DF20610FDF79AFB82
:103CA0004A214DF20710FDF795FB00214DF2081057
:103CB000FDF790FB5C214DF20910FDF78BFB002115
:103CC0004DF20A10FDF786FB81214DF20B10FDF736
:103CD00081FB00214DF20C10FDF77CFBA6214DF27B
:103CE0000D10FDF777FB00214DF20E10FDF772FB72
:103CF000E5214DF20F10FDF76DFB01214DF2101083
:103D0000FDF768FB13214DF21110FDF763FB012154
:103D10004DF21210FDF75EFB54214DF21310FDF72A
:103D200059FB01214DF21410FDF754FB82214DF295
:103D30001510FDF74FFB01214DF21610FDF74AFB60
:103D4000CA214DF21710FDF745FB02214DF2181064
:103D5000FDF740FB00214DF21910FDF73BFB02215E
:103D60004DF21A10FDF736FB01214DF21B10FDF745
:103D700031FB02214DF21C10FDF72CFB34214DF2DA
:103D80001D10FDF727FB02214DF21E10FDF722FB4F
:103D900067214DF21F10FDF71DFB02214DF220108F
:103DA000FDF718FB84214DF22110FDF713FB0221D2
:103DB0004DF22210FDF70EFBA4214DF22310FDF76A
:103DC00009FB02214DF22410FDF704FBB7214DF24F
:103DD0002510FDF7FFFA02214DF22610FDF7FAFA41
:103DE000CF214DF22710FDF7F5FA02214DF22810F0
:103DF000FDF7F0FADE214DF22910FDF7EBFA022172
:103E00004DF22A10FDF7E6FAF2214DF22B10FDF7E4
:103E1000E1FA02214DF22C10FDF7DCFAFE214DF201
:103E20002D10FDF7D7FA03214DF22E10FDF7D2FA2F
:103E300010214DF22F10FDF7CDFA03214DF2301075
:103E4000FDF7C8FA33214DF23110FDF7C3FA032113
:103E50004DF23210FDF7BEFA6D214DF23310FDF731
:103E6000B9FA00214FF45240FDF7B4FA33214DF274
:103E70000120FDF7AFFA00214DF20220FDF7AAFA6A
:103E8000342101E0A00000204DF20320FDF7A2FA4A
:103E900000214DF20420FDF79DFA3A214DF2052054
:103EA000FDF798FA00214DF20620FDF793FA4A211A
:103EB0004DF20720FDF78EFA00214DF20820FDF7A4
:103EC00089FA5C214DF20920FDF784FA00214DF2B8
:103ED0000A20FDF77FFA81214DF20B20FDF77AFAD7
:103EE00000214DF20C20FDF775FAA6214DF20D20B0
:103EF000FDF770FA00214DF20E20FDF76BFAE52177
:103F00004DF20F20FDF766FA01214DF21020FDF76A
:103F100061FA13214DF21120FDF75CFA01214DF2F7
:103F20001220FDF757FA54214DF21320FDF752FAF3
:103F300001214DF21420FDF74DFA82214DF215209A
:103F4000FDF748FA01214DF21620FDF743FACA2188
:103F50004DF21720FDF73EFA02214DF21820FDF731
:103F600039FA00214DF21920FDF734FA02214DF201
:103F70001A20FDF72FFA01214DF21B20FDF72AFA36
:103F800002214DF21C20FDF725FA34214DF21D20AF
:103F9000FDF720FA02214DF21E20FDF71BFA6721E2
:103FA0004DF21F20FDF716FA02214DF22020FDF7F9
:103FB00011FA84214DF22120FDF70CFA02214DF275
:103FC0002220FDF707FAA4214DF22320FDF702FA83
:103FD00002214DF22420FDF7FDF9B7214DF22520F5
:103FE000FDF7F8F902214DF22620FDF7F3F9CF2174
:103FF0004DF22720FDF7EEF902214DF22820FDF7C2
:10400000E9F9DE214DF22920FDF7E4F902214DF214
:104010002A20FDF7DFF9F2214DF22B20FDF7DAF926
:1040200002214DF22C20FDF7D5F9FE214DF22D2075
:10403000FDF7D0F903214DF22E20FDF7CBF9102129
:104040004DF22F20FDF7C6F903214DF23020FDF788
:10405000C1F933214DF23120FDF7BCF903214DF2B6
:104060003220FDF7B7F96D214DF23320FDF7B2F99B
:1040700000214FF45340FDF7ADF933214DF20130EB
:10408000FDF7A8F900214DF20230FDF7A3F9342124
:104090004DF20330FDF79EF900214DF20430FDF79B
:1040A00099F93A214DF20530FDF794F900214DF2CE
:1040B0000630FDF78FF94A214DF20730FDF78AF9F6
:1040C00000214DF20830FDF785F95C214DF20930F1
:1040D000FDF780F900214DF20A30FDF77BF98121CF
:1040E0004DF20B30FDF776F900214DF20C30FDF763
:1040F00071F9A6214DF20D30FDF76CF900214DF25A
:104100000E30FDF767F9E5214DF20F30FDF762F94A
:1041100001214DF21030FDF75DF913214DF2113000
:10412000FDF758F901214DF21230FDF753F95421F2
:104130004DF21330FDF74EF901214DF21430FDF729
:1041400049F982214DF21530FDF744F901214DF274
:104150001630FDF73FF9CA214DF21730FDF73AF955
:1041600002214DF21830FDF735F900214DF21930DA
:10417000FDF730F902214DF21A30FDF72BF901213C
:104180004DF21B30FDF726F902214DF21C30FDF7F0
:1041900021F934214DF21D30FDF71CF902214DF2B9
:1041A0001E30FDF717F967214DF21F30FDF712F9A8
:1041B00002214DF22030FDF70DF984214DF221301E
:1041C000FDF708F902214DF22230FDF703F9A42191
:1041D0004DF22330FDF7FEF802214DF22430FDF7B9
:1041E000F9F8B7214DF22530FDF7F4F802214DF230
:1041F0002630FDF7EFF8CF214DF22730FDF7EAF832
:1042000002214DF22830FDF7E5F8DE214DF229308C
:10421000FDF7E0F802214DF22A30FDF7DBF8F2213C
:104220004DF22B30FDF7D6F802214DF22C30FDF780
:10423000D1F8FE214DF22D30FDF7CCF803214DF2DF
:104240002E30FDF7C7F810214DF22F30FDF7C2F8E0
:1042500003214DF23030FDF7BDF833214DF23130FE
:10426000FDF7B8F803214DF23230FDF7B3F86D21B8
:104270004DF23330FDF7AEF800214FF45440FDF716
:10428000A9F833214DF20140FDF7A4F800214DF2C9
:104290000240FDF79FF834214DF20340FDF79AF8F4
:1042A00000214DF20440FDF795F83A214DF205400A
:1042B000FDF790F800214DF20640FDF78BF84A21FA
:1042C0004DF20740FDF786F800214DF20840FDF75A
:1042D00081F85C214DF20940FDF77CF800214DF298
:1042E0000A40FDF777F881214DF20B40FDF772F897
:1042F00000214DF20C40FDF76DF8A6214DF20D4066
:10430000FDF768F800214DF20E40FDF763F8E52156
:104310004DF20F40FDF75EF801214DF21040FDF720
:1043200059F813214DF21140FDF754F801214DF2D7
:104330001240FDF74FF854214DF21340FDF74AF8B3
:1043400001214DF21440FDF745F882214DF2154050
:10435000FDF740F801214DF21640FDF73BF8CA2168
:104360004DF21740FDF736F802214DF21840FDF7E7
:1043700031F800214DF21940FDF72CF802214DF2E1
:104380001A40FDF727F801214DF21B4000E006E33B
:10439000FDF720F802214DF21C40FDF71BF83421F7
:1043A0004DF21D40FDF716F802214DF21E40FDF7BB
:1043B00011F867214DF21F40FDF70CF802214DF274
:1043C0002040FDF707F884214DF22140FDF702F867
:1043D00002214DF22240FCF7FDFFA4214DF22340C3
:1043E000FCF7F8FF02214DF22440FCF7F3FFB72160
:1043F0004DF22540FCF7EEFF02214DF22640FCF77E
:10440000E9FFCF214DF22740FCF7E4FF02214DF2F6
:104410002840FCF7DFFFDE214DF22940FCF7DAFFF0
:1044200002214DF22A40FCF7D5FFF2214DF22B403C
:10443000FCF7D0FF02214DF22C40FCF7CBFFFE2110
:104440004DF22D40FCF7C6FF03214DF22E40FCF744
:10445000C1FF10214DF22F40FCF7BCFF03214DF2AC
:104460003040FCF7B7FF33214DF23140FCF7B2FF8B
:1044700003214DF23240FCF7ADFF6D214DF2334088
:10448000FCF7A8FF00214FF45540FCF7A3FF3321B0
:104490004DF20150FCF79EFF00214DF20250FCF757
:1044A00099FF34214DF20350FCF794FF00214DF2A7
:1044B0000450FCF78FFF3A214DF20550FCF78AFFBC
:1044C00000214DF20650FCF785FF4A214DF20750BE
:1044D000FCF780FF00214DF20850FCF77BFF5C21C8
:1044E0004DF20950FCF776FF00214DF20A50FCF71F
:1044F00071FF81214DF20B50FCF76CFF00214DF252
:104500000C50FCF767FFA6214DF20D50FCF762FF3F
:1045100000214DF20E50FCF75DFFE5214DF20F50EA
:10452000FCF758FF01214DF21050FCF753FF132107
:104530004DF21150FCF74EFF01214DF21250FCF7E5
:1045400049FF54214DF21350FCF744FF01214DF275
:104550001450FCF73FFF82214DF21550FCF73AFF53
:1045600001214DF21650FCF735FFCA214DF21750CC
:10457000FCF730FF02214DF21850FCF72BFF002111
:104580004DF21950FCF726FF02214DF21A50FCF7AC
:1045900021FF01214DF21B50FCF71CFF02214DF2BF
:1045A0001C50FCF717FF34214DF21D50FCF712FF91
:1045B00002214DF21E50FCF70DFF67214DF21F50F6
:1045C000FCF708FF02214DF22050FCF703FF842185
:1045D0004DF22150FCF7FEFE02214DF22250FCF775
:1045E000F9FEA4214DF22350FCF7F4FE02214DF216
:1045F0002450FCF7EFFEB7214DF22550FCF7EAFE00
:1046000002214DF22650FCF7E5FECF214DF2275056
:10461000FCF7E0FE02214DF22850FCF7DBFEDE2124
:104620004DF22950FCF7D6FE02214DF22A50FCF73C
:10463000D1FEF2214DF22B50FCF7CCFE02214DF2BF
:104640002C50FCF7C7FEFE214DF22D50FCF7C2FEA8
:1046500003214DF22E50FCF7BDFE10214DF22F50DC
:10466000FCF7B8FE03214DF23050FCF7B3FE3321C6
:104670004DF23150FCF7AEFE03214DF23250FCF703
:10468000A9FE6D214DF23350FCF7A4FE00214FF43A
:104690005640FCF79FFE33214DF20160FCF79AFE75
:1046A00000214DF20260FCF795FE34214DF20360CB
:1046B000FCF790FE00214DF20460FCF78BFE3A21DE
:1046C0004DF20560FCF786FE00214DF20660FCF716
:1046D00081FE4A214DF20760FCF77CFE00214DF27D
:1046E0000860FCF777FE5C214DF20960FCF772FE72
:1046F00000214DF20A60FCF76DFE81214DF20B6046
:10470000FCF768FE00214DF20C60FCF763FEA62169
:104710004DF20D60FCF75EFE00214DF20E60FCF7DD
:1047200059FEE5214DF20F60FCF754FE01214DF2D8
:104730001060FCF74FFE13214DF21160FCF74AFEAA
:1047400001214DF21260FCF745FE54214DF2136039
:10475000FCF740FE01214DF21460FCF73BFE822184
:104760004DF21560FCF736FE01214DF21660FCF7A4
:1047700031FECA214DF21760FCF72CFE02214DF2EA
:104780001860FCF727FE00214DF21960FCF722FEAD
:1047900002214DF21A60FCF71DFE01214DF21B6053
:1047A000FCF718FE02214DF21C60FCF713FE3421C9
:1047B0004DF21D60FCF70EFE02214DF21E60FCF76B
:1047C00009FE67214DF21F60FCF704FE02214DF245
:1047D0002060FCF7FFFD84214DF22160FCF7FAFD1B
:1047E00002214DF22260FCF7F5FDA4214DF2236079
:1047F000FCF7F0FD02214DF22460FCF7EBFDB72140
:104800004DF22560FCF7E6FD02214DF22660FCF733
:10481000E1FDCF214DF22760FCF7DCFD02214DF2D6
:104820002860FCF7D7FDDE214DF22960FCF7D2FDB0
:1048300002214DF22A60FCF7CDFDF2214DF22B60F2
:10484000FCF7C8FD02214DF22C60FCF7C3FDFE21F0
:104850004DF22D60FCF7BEFD03214DF22E60FCF7FA
:10486000B9FD10214DF22F60FCF7B4FD03214DF28C
:104870003060FCF7AFFD33214DF23160FCF7AAFD4B
:1048800003214DF23260FCF7A5FD6D214DF233603E
:10489000FCF7A0FD55214FF47040FCF79BFDAA21C9
:1048A0004FF20100FCF796FD52214FF20200FCF797
:1048B00091FD08214FF20300FCF78CFD00214FF21F
:1048C0000400FCF787FDCC214FF43140FCF782FD5A
:1048D00000214BF20110FCF77DFD05214FF436401D
:1048E000FCF778FD70214FF43740FCF773FD702121
:1048F0004BF20170FCF76EFD01214FF43840FCF7DC
:1049000069FD03214BF60100FCF764FD03214BF622
:104910000200FCF75FFD03214BF60300FCF75AFD94
:1049200002214FF43C40FCF755FD00214BF60140BD
:10493000FCF750FD00214BF60240FCF74BFDD02167
:104940004FF44940FCF746FD02214CF60110FCF7FC
:1049500041FD50214CF60210FCF73CFD50214CF675
:104960000310FCF737FD50214CF60410FCF732FD24
:1049700000214FF45450FCF72DFD55214FF46850A1
:10498000FCF728FD4FF48850FCF72DFD782001F04E
:104990003AFB4FF42450FCF726FD01F05EB9FE48C7
:1049A000808849F2253188427ED147F6F001E52022
:1049B000FCF710FD4FF480710120FCF70BFD4FF464
:1049C000E0610220FCF706FD41F230010320FCF714
:1049D00001FD00210420FCF7FDFC40F2022108202B
:1049E000FCF7F8FC00210920FCF7F4FC00210A2068
:1049F000FCF7F0FC00210C20FCF7ECFC00210D2062
:104A0000FCF7E8FC00210F20FCF7E4FC002110205B
:104A1000FCF7E0FC07211120FCF7DCFC0021122050
:104A2000FCF7D8FC00211320FCF7D4FC0021072060
:104A3000FCF7D0FC41F290611020FCF7CBFC40F277
:104A400027211120FCF7C6FC9D211220FCF7C2FC97
:104A50004FF4C8511320FCF7BDFC25212920FCF799
:104A6000B9FC0D212B20FCF7B5FC07213020FCF709
:104A7000B1FC40F203313120FCF7ACFC03213220C1
:104A8000FCF7A8FC40F206213520FCF7A3FC082126
:104A90003620FCF79FFC40F206413720FCF79AFCD9
:104AA0004FF44171382000E057E0FCF793FC0721F8
:104AB0003920FCF78FFC40F202613C20FCF78AFCB5
:104AC00008213D20FCF786FC00215020FCF782FCE9
:104AD000EF215120FCF77EFC00215220FCF77AFCEC
:104AE00040F23F115320FCF775FC4FF42741602042
:104AF000FCF770FC01216120FCF76CFC00216A20AE
:104B0000FCF768FC00218020FCF764FC0021812078
:104B1000FCF760FC00218220FCF75CFC0021832074
:104B2000FCF758FC00218420FCF754FC0021852070
:104B3000FCF750FC10219020FCF74CFC4FF4C061B6
:104B40009220FCF747FC40F233110720FCF742FCAF
:104B500022210020FCF73EFC1FE78F48808849F2A5
:104B6000283188427ED141F28F01EC20FCF732FCE3
:104B700041F23421EF20FCF72DFC4FF4807101202D
:104B8000FCF728FC4FF4E0610220FCF723FC41F223
:104B900030010320FCF71EFC00210420FCF71AFC66
:104BA00040F202210820FCF715FC00210920FCF747
:104BB00011FC00210A20FCF70DFC01210C20FCF760
:104BC00009FC00210D20FCF705FC00210F20FCF75B
:104BD00001FC00211020FCF7FDFB07211120FCF750
:104BE000F9FB00211220FCF7F5FB00211320FCF754
:104BF000F1FB01210720FCF7EDFB322001F027FA41
:104C000041F290411020FCF7E5FB40F227211120F2
:104C1000FCF7E0FB322001F01AFA8A211220FCF79F
:104C2000D9FB322001F013FA4FF4D0511320FCF7D6
:104C3000D1FB06212920FCF7CDFB0D212B20FCF711
:104C4000C9FB322001F003FA00212020FCF7C2FB4F
:104C500000212120FCF7BEFB322001F0F8F90021F1
:104C6000302000E074E0FCF7B5FB40F20461312035
:104C7000FCF7B0FB40F205313220FCF7ABFB002122
:104C80003520FCF7A7FB40F609413620FCF7A2FBD4
:104C90004FF401713720FCF79DFB40F201313820C1
:104CA000FCF798FB40F207713920FCF793FB0021D9
:104CB0003C20FCF78FFB40F60A213D20FCF78AFBE5
:104CC000322001F0C4F900215020FCF783FBEF21D2
:104CD0005120FCF77FFB00215220FCF77BFB40F2C8
:104CE0003F115320FCF776FB4FF427416020FCF77F
:104CF00071FB01216120FCF76DFB00216A20FCF7AC
:104D000069FB00218020FCF765FB00218120FCF776
:104D100061FB00218220FCF75DFB00218320FCF772
:104D200059FB00218420FCF755FB00218520FCF76E
:104D300051FB10219020FCF74DFB4FF4C0619220F5
:104D4000FCF748FB40F233110720FCF743FB24E655
:104D50001148808849F2203188427DD100210846DF
:104D6000FCF738FB4FF480710120FCF733FB4FF464
:104D7000E0610220FCF72EFB41F230010320FCF73A
:104D800029FB00210420FCF725FB40F2022108202A
:104D9000FCF720FB002101E0A00000200920FCF727
:104DA00019FB00210A20FCF715FB01210C20FCF760
:104DB00011FB00210D20FCF70DFB00210F20FCF75B
:104DC00009FB322001F043F940F201110720FCF702
:104DD00001FB322001F03BF94FF486511020FCF723
:104DE000F9FA07211120FCF7F5FA4FF48871122027
:104DF000FCF7F0FA4FF430611320FCF7EBFA0021D6
:104E00002920FCF7E7FA44F210012B20FCF7E2FA24
:104E100000215020FCF7DEFAEF215120FCF7DAFAEE
:104E200000215220FCF7D6FA40F23F115320FCF744
:104E3000D1FA4FF41C516020FCF7CCFA012161201B
:104E4000FCF7C8FA00216A20FCF7C4FA0021802090
:104E5000FCF7C0FA002100E031E08120FCF7BAFA4B
:104E600000218220FCF7B6FA00218320FCF7B2FA79
:104E700000218420FCF7AEFA00218520FCF7AAFA75
:104E800010219020FCF7A6FA00219220FCF7A2FA4C
:104E900001219320FCF79EFA4FF488719520FCF7CE
:104EA00099FA00219720FCF795FA00219820FCF749
:104EB00091FA40F273110720FCF78CFA6DE5FE4879
:104EC000808849F2313188427DD141F21401E720D6
:104ED000FCF780FA4FF480710120FCF77BFA4FF465
:104EE00000710220FCF776FA41F238010320FCF74A
:104EF00071FA40F202210820FCF76CFA0021092027
:104F0000FCF768FA00210A20FCF764FA00210C2063
:104F1000FCF760FA00210D20FCF75CFA00210F205D
:104F2000FCF758FA00211020FCF754FA0721112051
:104F3000FCF750FA00211220FCF74CFA0021132054
:104F4000FCF748FAC82001F082F841F29061102085
:104F5000FCF740FA40F227211120FCF73BFA3220FF
:104F600001F075F80C211220FCF734FA322001F020
:104F70006EF84FF400611320FCF72CFA1121292060
:104F8000FCF728FA0B212B20FCF724FA322001F041
:104F90005EF800212020FCF71DFA40F23F1121208D
:104FA000FCF718FA00213020FCF714FA4FF4837153
:104FB0003120FCF70FFA00213220FCF70BFA4FF4F6
:104FC0000171352000E064E0FCF704FA41F20A6167
:104FD0003620FCF7FFF940F207713720FCF7FAF9A9
:104FE0004FF483713820FCF7F5F940F2077139204E
:104FF000FCF7F0F940F202413C20FCF7EBF940F6F7
:105000000F413D20FCF7E6F900215020FCF7E2F9C2
:10501000EF215120FCF7DEF900215220FCF7DAF9EC
:1050200040F23F115320FCF7D5F94FF41C5160209A
:10503000FCF7D0F901216120FCF7CCF900216A20AE
:10504000FCF7C8F900218020FCF7C4F90021812079
:10505000FCF7C0F900218220FCF7BCF90021832075
:10506000FCF7B8F900218420FCF7B4F90021852071
:10507000FCF7B0F910219020FCF7ACF94FF4C061B7
:105080009220FCF7A7F940F233110720FCF7A2F9B0
:1050900083E48948808845F2084188427ED14FF4F4
:1050A00080710120FCF796F94FF4E0610220FCF7D3
:1050B00091F941F230010320FCF78CF90021042022
:1050C000FCF788F940F207210820FCF783F900215A
:1050D0000920FCF77FF900210A20FCF77BF9002169
:1050E0000C20FCF777F900210D20FCF773F9002163
:1050F0000F20FCF76FF9142000F0A9FF41F2B06116
:105100001020FCF767F901211120FCF763F9012158
:105110001720FCF75FF94FF49C711220FCF75AF945
:105120004FF400611320FCF755F909212920FCF701
:1051300051F909212A20FCF74DF90021A420FCF7A0
:1051400049F900215020FCF745F9EF215120FCF7E7
:1051500041F900215220FCF73DF940F23F11532064
:10516000FCF738F94FF41C516020FCF733F90121AA
:105170006120FCF72FF900216A20FCF72BF90021B0
:105180008020FCF727F900218120FCF723F900217A
:105190008220FCF71FF90021832000E023E0FCF7C8
:1051A00019F900218420FCF715F900218520FCF76E
:1051B00011F913219020FCF70DF900219220FCF742
:1051C00009F903219320FCF705F94FF48871952024
:1051D000FCF700F940F273110720FCF7FBF83220CE
:1051E00000F035FFB8E43448808841F20551884228
:1051F0007ED100210720FCF7EDF8322000F027FFD8
:105200004FF48E711220FCF7E5F80121A420FCF781
:10521000E1F80F210820FCF7DDF808210A20FCF74F
:10522000D9F808210D20FCF7D5F840F2077130209D
:10523000FCF7D0F807213120FCF7CCF840F20361ED
:105240003220FCF7C7F84FF4E0613320FCF7C2F8D6
:1052500040F202213420FCF7BDF802213520FCF792
:10526000B9F841F60F713620FCF7B4F840F2077137
:105270003720FCF7AFF800213820FCF7ABF800210D
:105280003920FCF7A7F840F207713A20FCF7A2F8A2
:1052900000213B20FCF79EF807213C20FCF79AF800
:1052A00000213D20FCF796F8322000F0D0FE0121CD
:1052B0000720FCF78FF801E0A00000200121172053
:1052C000FCF788F8322000F0C2FE4FF4BD511020E8
:1052D000FCF780F840F217211120FCF77BF84FF41F
:1052E0008F711220FCF776F84FF47061132000E004
:1052F00097E0FCF76FF800212A20FCF76BF80A21F1
:105300002920FCF767F84FF49F711220FCF762F830
:1053100000215020FCF75EF8EF215120FCF75AF8ED
:1053200000215220FCF756F840F23F115320FCF7C1
:1053300051F84FF41C516020FCF74CF8012161201A
:10534000FCF748F800216A20FCF744F8002180208F
:10535000FCF740F800218120FCF73CF80021822076
:10536000FCF738F800218320FCF734F80021842072
:10537000FCF730F800218520FCF72CF81321902051
:10538000FCF728F84FF440719220FCF723F8052130
:105390009320FCF71FF800219520FCF71BF8002153
:1053A0009720FCF717F800219820FCF713F84FF42A
:1053B00080710120FCF70EF84FF4E0610220FCF749
:1053C00009F841F238010320FCF704F80021042019
:1053D000FCF700F800210C20FBF7FCFF00210F2058
:1053E000FBF7F8FF00212020FBF7F4FF002121202C
:1053F000FBF7F0FF21210720FBF7ECFF142000F062
:1054000026FE61210720FBF7E5FF142000F01FFEB8
:1054100040F273110720FBF7DDFF142000F017FEA8
:1054200095E4FE4880884BF2055188427ED10021E8
:105430000846FBF7CFFF00210846FBF7CBFF002112
:105440000846FBF7C7FF00210846FBF7C3FF012111
:10545000A420FBF7BFFF142000F0F9FD4FF41C510E
:105460006020FBF7B7FF40F202210820FBF7B2FFF4
:105470004FF405713020FBF7ADFF43F21571312079
:10548000FBF7A8FF40F204613220FBF7A3FF40F6D0
:1054900016613320FBF79EFF42F211213420FBF707
:1054A00099FF4FF4A8513520FBF794FF48F20751BC
:1054B0003620FBF78FFF41F207413720FBF78AFFC9
:1054C00041F203413820FBF785FF20213920FBF70B
:1054D00081FF1A219020FBF77DFF00211020FBF7B0
:1054E00079FF07211120FBF775FF00211220FBF740
:1054F00071FF00211320FBF76DFF142000F0A7FDC2
:105500004FF4E6611020FBF765FF40F237111120E0
:10551000FBF760FF142000F09AFD4FF4DC711220BD
:10552000FBF758FF142000F092FD00E083E04FF4F9
:1055300070611320FBF74EFF80212A20FBF74AFF02
:1055400048212920FBF746FF142000F080FD4FF48E
:1055500080710120FBF73EFF4FF4E0610220FBF772
:1055600039FF41F238010320FBF734FF40F20221FA
:105570000820FBF72FFF00210A20FBF72BFF00215B
:105580000C20FBF727FF00210D20FBF723FF302124
:105590000E20FBF71FFF00215020FBF71BFFEF2120
:1055A0005120FBF717FF00215220FBF713FF40F2B9
:1055B0003F115320FBF70EFF4FF41C516020FBF707
:1055C00009FF01216120FBF705FF00216A20FBF79D
:1055D00001FF11219020FBF7FDFE4FF4C0619220E6
:1055E000FBF7F8FE40F202419320FBF7F3FE0221A5
:1055F0009420FBF7EFFE142000F029FD0121072085
:10560000FBF7E8FE142000F022FD61210720FBF7E4
:10561000E1FE40F273110720FBF7DCFE00212020A1
:10562000FBF7D8FE00212120FBF7D4FE2221002029
:10563000FBF7D0FE11E3794880884CF2055188428F
:105640007ED100210846FBF7C5FE00210846FBF786
:10565000C1FE142000F0FBFC00210846FBF7BAFE57
:1056600000210846FBF7B6FE00210846FBF7B2FE14
:1056700000210846FBF7AEFE0121A420FBF7AAFE9D
:10568000142000F0E4FC4FF41C516020FBF7A2FE54
:1056900040F606010820FBF79DFE40F20371302022
:1056A000FBF798FE01213120FBF794FE0421322004
:1056B000FBF790FE4FF481713320FBF78BFE4FF424
:1056C00040713420FBF786FE40F203113520FBF7D2
:1056D00081FE1F213620FBF77DFE40F2037137204B
:1056E000FBF778FE01213820FBF774FE04213920F6
:1056F000FBF770FE15219020FBF76CFE4FF48261E2
:105700001020FBF767FE40F247211120FBF762FEF5
:105710004FF4DE711220FBF75DFE4FF46061132041
:10572000FBF758FE782000F092FC4FF480710120C6
:10573000FBF750FE4FF400710220FBF74BFE00E038
:1057400050E041F230010320FBF744FE08210A201B
:10575000FBF740FE00210C20FBF73CFE20210E2031
:10576000FBF738FE00210F20FBF734FE002120203C
:10577000FBF730FE00212120FBF72CFE3D212A20E3
:10578000FBF728FE142000F062FC2D212920FBF7F6
:1057900021FE00215020FBF71DFE4DF2EF015120AC
:1057A000FBF718FE00215220FBF714FE40F23F11D8
:1057B0005320FBF70FFE00216120FBF70BFE0021B9
:1057C0006A20FBF707FE4FF440719220FBF702FEC0
:1057D00005219320FBF7FEFD4FF480710720FBF7B6
:1057E000F9FD3AE20D48808844F2315188427CD17B
:1057F00001210020FBF7EEFD0A2000F028FC41F219
:1058000028611020FBF7E6FD0E211220FBF7E2FDD8
:1058100040F639211320FBF7DDFD01E0A000002058
:105820000A2000F014FC40211120FBF7D3FD502189
:105830001520FBF7CFFD0A2000F009FC1E211220E5
:10584000FBF7C8FD0A2000F002FC4FF4B151102014
:10585000FBF7C0FD42F639211320FBF7BBFD0A2000
:1058600000F0F5FB4FF480710120FBF7B3FD4FF41E
:1058700040710220FBF7AEFD41F238010320FBF737
:10588000A9FD40F202210820FBF7A4FD08210A200F
:10589000FBF7A0FD00213020FBF79CFD40F2024108
:1058A0003120FBF797FD4FF483713220FBF792FD17
:1058B00040F203513320FBF78DFD4FF48271342009
:1058C000FBF788FD40F201313520FBF783FD40F204
:1058D00007713620FBF77EFD40F205313720FBF7DC
:1058E00079FD4FF40271382000E040E0FBF772FDD3
:1058F00040F60B713920FBF76DFD02214120FBF7CB
:1059000069FD4FF41C516020FBF764FD012161200B
:10591000FBF760FD4FF404719020FBF75BFD4FF443
:1059200085719220FBF756FD04219320FBF752FD71
:105930004FF48071A020FBF74DFD01210720FBF7FC
:1059400049FD21210720FBF745FD23210720FBF717
:1059500041FD33210720FBF73DFD40F233110720C5
:10596000FBF738FD0021A020FBF734FD75E1F74877
:10597000808844F2355188427ED130211520FBF7D2
:1059800029FD10219A20FBF725FD20211120FBF78E
:1059900021FD43F228411020FBF71CFD02211220BB
:1059A000FBF718FD41F238011320FBF713FD282007
:1059B00000F04DFB12210846FBF70CFD282000F0FB
:1059C00046FB43F220411020FBF704FD43F238016F
:1059D0001320FBF7FFFC462000F039FB00213020AC
:1059E000FBF7F8FC40F202413120FBF7F3FC40F2F8
:1059F00007313220FBF7EEFC4FF441713320FBF707
:105A0000E9FC04213420FBF7E5FC40F2014135209C
:105A1000FBF7E0FC40F207713620FBF7DBFC40F2BD
:105A200005313720FBF7D6FC4FF4C2613820FBF775
:105A3000D1FC4FF4C2613920FBF7CCFC4FF48071EC
:105A40000120FBF7C7FC4FF440710220FBF7C2FCBA
:105A500041F230010320FBF7BDFC40F608010820AD
:105A6000FBF7B8FC08210A20FBF7B4FC4FF41C51EB
:105A70006020FBF7AFFC00E031E001216120FBF783
:105A8000A9FC4FF49F719020FBF7A4FC4FF48071A8
:105A90009220FBF79FFC4FF480719320FBF79AFC58
:105AA0004FF44051A020FBF795FC1021A320FBF7F9
:105AB00091FC01210720FBF78DFC21210720FBF73A
:105AC00089FC23210720FBF785FC33210720FBF706
:105AD00081FC40F233110720FBF77CFCBDE09B48C2
